:100000000C945D000C9485000C9485000C94850084
:100010000C9485000C9485000C9485000C9485004C
:100020000C9485000C9485000C9485000C9485003C
:100030000C9485000C9485000C9485000C9485002C
:100040000C9462040C9485000C9430040C940A0403
:100050000C9485000C9485000C9485000C9485000C
:100060000C9485000C94850000000008000201003B
:100070000003040700000000000000000000000072
:10008000250028002B0000000000240027002A0083
:10009000040404040404040402020202020203032E
:1000A0000303030301020408102040800102040836
:1000B0001020010204081020AC0411241FBECFEF51
:1000C000D8E0DEBFCDBF11E0A0E0B1E0E4E2FCE0AB
:1000D00002C005900D92A836B107D9F722E0A8E634
:1000E000B1E001C01D92A632B207E1F710E0CDE504
:1000F000D0E004C02197FE010E940A06CC35D1074A
:10010000C9F70E94F7040C9410060C94000090E0CC
:10011000FC01EC55FF4F249180579F4FFC018491C7
:10012000882399F090E0880F991FFC01EA57FF4F50
:10013000A591B491FC01E458FF4F859194918FB73C
:10014000F894EC91E22BEC938FBF0895AF92BF929D
:10015000CF92DF92EF92FF920F931F93CF93DF9393
:100160006C017B018B01040F151FEB015E01AE18C2
:10017000BF08C017D10759F06991D601ED91FC91E4
:100180000190F081E02DC6010995892B79F7C50111
:10019000DF91CF911F910F91FF90EF90DF90CF9063
:1001A000BF90AF900895FC01538D448D252F30E012
:1001B000842F90E0821B930B541710F0CF96089574
:1001C00001970895FC01918D828D981761F0A28DA1
:1001D000AE0FBF2FB11D5D968C91928D9F5F9F7367
:1001E000928F90E008958FEF9FEF0895FC01918D1D
:1001F000828D981731F0828DE80FF11D858D90E08A
:1002000008958FEF9FEF0895FC01918D228D892F26
:1002100090E0805C9F4F821B91098F73992708950E
:1002200081E791E00E94040121E0892B09F420E09C
:10023000822F089580E090E0892B29F00E94100120
:1002400081110C9400000895FC01A48DA80FB92F12
:10025000B11DA35ABF4F2C91848D90E001968F73EE
:100260009927848FA689B7892C93A089B1898C910D
:10027000837080648C93938D848D981306C002885C
:10028000F389E02D80818F7D80830895EF92FF9226
:100290000F931F93CF93DF93EC0181E0888F9B8DA9
:1002A0008C8D98131AC0E889F989808185FF15C063
:1002B0009FB7F894EE89FF896083E889F989808186
:1002C0008370806480839FBF81E090E0DF91CF9155
:1002D0001F910F91FF90EF900895F62E0B8D10E077
:1002E0000F5F1F4F0F731127E02E8C8D8E110CC0E6
:1002F0000FB607FCFACFE889F989808185FFF5CF31
:10030000CE010E942401F1CFEB8DEC0FFD2FF11DEA
:10031000E35AFF4FF0829FB7F8940B8FEA89FB896D
:1003200080818062CFCFCF93DF93EC01888D8823CB
:10033000B9F0AA89BB89E889F9898C9185FD03C048
:10034000808186FD0DC00FB607FCF7CF8C9185FF2D
:10035000F2CF808185FFEDCFCE010E942401E9CF4D
:10036000DF91CF91089590E0FC01E859FF4F24916F
:10037000FC01EC55FF4F3491FC01E057FF4FE49135
:10038000EE23C9F0222339F0233001F1A8F4213003
:1003900019F1223029F1F0E0EE0FFF1FE458FF4F72
:1003A000A591B4918FB7F894EC91611126C0309566
:1003B0003E233C938FBF08952730A9F02830C9F021
:1003C000243049F7809180008F7D03C080918000A8
:1003D0008F7780938000DFCF84B58F7784BDDBCFAC
:1003E00084B58F7DFBCF8091B0008F778093B00074
:1003F000D2CF8091B0008F7DF9CF3E2BDACF3FB7BF
:10040000F89480916D0190916E01A0916F01B0916F
:10041000700126B5A89B05C02F3F19F00196A11DBC
:10042000B11D3FBFBA2FA92F982F8827BC01CD013E
:10043000620F711D811D911D42E0660F771F881F9D
:10044000991F4A95D1F708958F929F92AF92BF92CC
:10045000CF92DF92EF92FF920E94FF014B015C016D
:1004600084E6C82ED12CE12CF12C0E94FF016819E2
:1004700079098A099B09683E734081059105A8F3B3
:1004800021E0C21AD108E108F10888EE880E83E065
:10049000981EA11CB11CC114D104E104F10429F778
:1004A000FF90EF90DF90CF90BF90AF909F908F9094
:1004B0000895089590E080E00895CF93DF93EC01D4
:1004C00060E08E810E94B30161E08E810E94B301E1
:1004D00060E08E810E94B3018BE891E00197F1F713
:1004E000DF91CF910895CF92DF92EF92FF920F9319
:1004F0001F93CF93DF936C017C0187E0E80EF11C22
:10050000D0E0C0E0062F10E0B8010C2E02C07595B7
:1005100067950A94E2F76170F70181917F010E946B
:10052000B3012196C430D10579F7C601DF91CF918F
:100530001F910F91FF90EF90DF90CF900C945D0290
:10054000CF92DF92EF92FF920F931F93CF93DF939F
:10055000EC01F62E642F8C810E94B3018D818F3FB8
:1005600019F060E00E94B3010F2D10E08F8584FF29
:1005700025C06E0187E0C80ED11CF12CE12CB8011A
:100580000E2C02C0759567950A94E2F76170F6012A
:1005900081916F010E94B301FFEFEF1AFF0A88E01B
:1005A000E816F10461F7CE01DF91CF911F910F9111
:1005B000FF90EF90DF90CF900C945D02B80184E043
:1005C000759567958A95E1F7CE010E9473026F2DAC
:1005D000CE01DF91CF911F910F91FF90EF90DF90AF
:1005E000CF900C94730240E0682F8EE092E00C9460
:1005F000A002CF93DF93613029F090911D029860A3
:1006000090931D02609321021092220290E4909335
:10061000230280932402805C809325028091120241
:100620000E948700809113028F3F11F00E94870083
:10063000809114020E948700CEE0D2E09E012E50ED
:10064000324080911D0284FD0AC084E090E0219632
:10065000281739073CF48E810E948700EFCF88E08D
:1006600090E0F5CF8BE39DE00197F1F760E080919A
:1006700012020E94B30160E0809114020E94B30153
:10068000809113028F3F19F060E00E94B3018091C6
:100690001D0284FD39C063E08EE092E00E94730287
:1006A000CBE4D6E4CE010197F1F763E08EE092E06F
:1006B0000E9473022197F1F763E08EE092E00E94BE
:1006C000730283E592E00197F1F762E08EE092E039
:1006D0000E94730280911D0280620E94F30284E0F6
:1006E00080931E028CE00E94F30281E00E94F302DC
:1006F0008BE39FE10197F1F782E080931F0286E090
:10070000DF91CF910C94F30280620E94F3028BE49C
:1007100096E40197F1F780911D0280620E94F30236
:1007200083E592E00197F1F780911D0280620E94BB
:10073000F302D0CF90912102691710F06FEF690F8B
:10074000E62FF0E0E25FFD4F9489890F80680C94FA
:10075000F30241E00E94A00281E090E00895FB01D5
:1007600001900020E9F73197AF01461B570BDC01E0
:10077000ED91FC910280F381E02D09948F929F927C
:10078000AF92BF92EF92FF920F931F93CF93DF939D
:10079000CDB7DEB7A1970FB6F894DEBF0FBECDBFC1
:1007A0007C01FA01CB0119A2223008F42AE08E0163
:1007B0000F5D1F4F822E912CB12CA12CBF01A501E2
:1007C00094010E94E805F901CA016A300CF5605DE8
:1007D000D8016E938D01232B242B252B79F790E0E4
:1007E00080E0109721F0BD01C7010E94AF03A196E0
:1007F0000FB6F894DEBF0FBECDBFDF91CF911F9132
:100800000F91FF90EF90BF90AF909F908F900895C1
:10081000695CDECF1F920F920FB60F9211242F93B7
:100820003F934F935F936F937F938F939F93AF9378
:10083000BF93EF93FF9381E791E00E942401FF9122
:10084000EF91BF91AF919F918F917F916F915F9148
:100850004F913F912F910F900FBE0F901F901895C1
:100860001F920F920FB60F9211242F938F939F9385
:10087000EF93FF93E0918101F09182018081E091FB
:100880008701F091880182FD1BC0908180918A01CF
:100890008F5F8F7320918B01821741F0E0918A0165
:1008A000F0E0EF58FE4F958F80938A01FF91EF9112
:1008B0009F918F912F910F900FBE0F901F901895C1
:1008C0008081F4CF1F920F920FB60F9211242F93B5
:1008D0003F938F939F93AF93BF93809169019091C2
:1008E0006A01A0916B01B0916C013091680123E025
:1008F000230F2D3758F50196A11DB11D20936801D6
:100900008093690190936A01A0936B01B0936C018D
:1009100080916D0190916E01A0916F01B091700175
:100920000196A11DB11D80936D0190936E01A0935E
:100930006F01B0937001BF91AF919F918F913F91E3
:100940002F910F900FBE0F901F90189526E8230F40
:100950000296A11DB11DD2CFE1E7F1E01382128210
:1009600088EE93E0A0E0B0E084839583A683B7830C
:1009700084E091E09183808385EC90E09587848783
:1009800084EC90E09787868780EC90E0918B808B59
:1009900081EC90E0938B828B82EC90E0958B848B42
:1009A00086EC90E0978B868B118E128E138E148EB0
:1009B000EEE0F2E01382128286E191E0918380837F
:1009C0008DE084838FEF85838CE086838BE0878343
:1009D0008AE0808789E0818788E082871386148691
:1009E00015861686178661E080E10C94F9027894EA
:1009F00084B5826084BD84B5816084BD85B5826024
:100A000085BD85B5816085BD80916E0081608093D4
:100A10006E0010928100809181008260809381003D
:100A2000809181008160809381008091800081604D
:100A3000809380008091B10084608093B1008091A8
:100A4000B00081608093B00080917A0084608093D0
:100A50007A0080917A00826080937A0080917A0097
:100A6000816080937A0080917A00806880937A0018
:100A70001092C10064E084E10E94F902E0918101DA
:100A8000F091820182E08083E0917D01F0917E010E
:100A90001082E0917F01F09180018FEC80831092B1
:100AA0008901E0918501F091860186E08083E091E3
:100AB0008301F0918401808180618083E0918301D2
:100AC000F0918401808188608083E0918301F091BE
:100AD0008401808180688083E0918301F0918401AA
:100AE00080818F7D80836EE171E08EE092E00E94D4
:100AF000AF0361E080E00E949A036FE271E08EE054
:100B000092E00E94AF0362E080E00E949A0369E4F1
:100B100071E08EE092E00E94AF03C0E0D0E081E798
:100B200091E00E94E2006C0163E080E00E949A0381
:100B300063E08DE00E949A030D2C000CEE08FF0884
:100B40002AE0B701A601F7FE0EC041E06DE28EE09B
:100B500092E00E94A00244275527BA014C195D0972
:100B60006E097F092AE08EE092E00E94BE030E9497
:100B700024026BE571E081E791E00E94AF032AE077
:100B8000B701A601F7FE0DC06DE281E791E00E947A
:100B9000460144275527BA014C195D096E097F09A2
:100BA0002AE081E791E00E94BE0365E671E081E7FB
:100BB00091E00E94AF030E942402209709F4AFCF76
:100BC0000E941001882309F4AACF0E940000A7CF39
:100BD000A1E21A2EAA1BBB1BFD010DC0AA1FBB1F41
:100BE000EE1FFF1FA217B307E407F50720F0A21BB3
:100BF000B30BE40BF50B661F771F881F991F1A9420
:100C000069F760957095809590959B01AC01BD0149
:100C1000CF010895EE0FFF1F0590F491E02D099488
:040C2000F894FFCF76
:100C2400000000004601A600D30093010401E20085
:100C3400F60000000000A903A6005A0259027769D1
:100C440072656C6573732053657269616C2000630F
:100C54006F6D6D756E69636174696F6E207669611D
:100C640020322E342047487A006D6F64656D206110
:100C74007420504E4A2E2E2E2E2E0054454D505F79
:080C840056414C3B000D0A0033
:00000001FF
