:100000000C945D000C9485000C9485000C94850084
:100010000C9485000C9485000C9485000C9485004C
:100020000C9485000C9485000C9485000C9485003C
:100030000C9485000C9485000C9485000C9485002C
:100040000C9462040C9485000C9430040C940A0403
:100050000C9485000C9485000C9485000C9485000C
:100060000C9485000C94850000000008000201003B
:100070000003040700000000000000000000000072
:10008000250028002B0000000000240027002A0083
:10009000040404040404040402020202020203032E
:1000A0000303030301020408102040800102040836
:1000B0001020010204081020AC0411241FBECFEF51
:1000C000D8E0DEBFCDBF11E0A0E0B1E0E8E3FCE0A6
:1000D00002C005900D92A637B107D9F722E0A6E736
:1000E000B1E001C01D92A433B207E1F710E0CDE505
:1000F000D0E004C02197FE010E941406CC35D10740
:10010000C9F70E94F7040C941A060C94000090E0C2
:10011000FC01EC55FF4F249180579F4FFC018491C7
:10012000882399F090E0880F991FFC01EA57FF4F50
:10013000A591B491FC01E458FF4F859194918FB73C
:10014000F894EC91E22BEC938FBF0895AF92BF929D
:10015000CF92DF92EF92FF920F931F93CF93DF9393
:100160006C017B018B01040F151FEB015E01AE18C2
:10017000BF08C017D10759F06991D601ED91FC91E4
:100180000190F081E02DC6010995892B79F7C50111
:10019000DF91CF911F910F91FF90EF90DF90CF9063
:1001A000BF90AF900895FC01538D448D252F30E012
:1001B000842F90E0821B930B541710F0CF96089574
:1001C00001970895FC01918D828D981761F0A28DA1
:1001D000AE0FBF2FB11D5D968C91928D9F5F9F7367
:1001E000928F90E008958FEF9FEF0895FC01918D1D
:1001F000828D981731F0828DE80FF11D858D90E08A
:1002000008958FEF9FEF0895FC01918D228D892F26
:1002100090E0805C9F4F821B91098F73992708950E
:100220008FE791E00E94040121E0892B09F420E08E
:10023000822F089580E090E0892B29F00E94100120
:1002400081110C9400000895FC01A48DA80FB92F12
:10025000B11DA35ABF4F2C91848D90E001968F73EE
:100260009927848FA689B7892C93A089B1898C910D
:10027000837080648C93938D848D981306C002885C
:10028000F389E02D80818F7D80830895EF92FF9226
:100290000F931F93CF93DF93EC0181E0888F9B8DA9
:1002A0008C8D98131AC0E889F989808185FF15C063
:1002B0009FB7F894EE89FF896083E889F989808186
:1002C0008370806480839FBF81E090E0DF91CF9155
:1002D0001F910F91FF90EF900895F62E0B8D10E077
:1002E0000F5F1F4F0F731127E02E8C8D8E110CC0E6
:1002F0000FB607FCFACFE889F989808185FFF5CF31
:10030000CE010E942401F1CFEB8DEC0FFD2FF11DEA
:10031000E35AFF4FF0829FB7F8940B8FEA89FB896D
:1003200080818062CFCFCF93DF93EC01888D8823CB
:10033000B9F0AA89BB89E889F9898C9185FD03C048
:10034000808186FD0DC00FB607FCF7CF8C9185FF2D
:10035000F2CF808185FFEDCFCE010E942401E9CF4D
:10036000DF91CF91089590E0FC01E859FF4F24916F
:10037000FC01EC55FF4F3491FC01E057FF4FE49135
:10038000EE23C9F0222339F0233001F1A8F4213003
:1003900019F1223029F1F0E0EE0FFF1FE458FF4F72
:1003A000A591B4918FB7F894EC91611126C0309566
:1003B0003E233C938FBF08952730A9F02830C9F021
:1003C000243049F7809180008F7D03C080918000A8
:1003D0008F7780938000DFCF84B58F7784BDDBCFAC
:1003E00084B58F7DFBCF8091B0008F778093B00074
:1003F000D2CF8091B0008F7DF9CF3E2BDACF3FB7BF
:10040000F89480917B0190917C01A0917D01B09145
:100410007E0126B5A89B05C02F3F19F00196A11DAE
:10042000B11D3FBFBA2FA92F982F8827BC01CD013E
:10043000620F711D811D911D42E0660F771F881F9D
:10044000991F4A95D1F708958F929F92AF92BF92CC
:10045000CF92DF92EF92FF920E94FF014B015C016D
:1004600084E6C82ED12CE12CF12C0E94FF016819E2
:1004700079098A099B09683E734081059105A8F3B3
:1004800021E0C21AD108E108F10888EE880E83E065
:10049000981EA11CB11CC114D104E104F10429F778
:1004A000FF90EF90DF90CF90BF90AF909F908F9094
:1004B0000895089590E080E00895CF93DF93EC01D4
:1004C00060E08E810E94B30161E08E810E94B301E1
:1004D00060E08E810E94B3018BE891E00197F1F713
:1004E000DF91CF910895CF92DF92EF92FF920F9319
:1004F0001F93CF93DF936C017C0187E0E80EF11C22
:10050000D0E0C0E0062F10E0B8010C2E02C07595B7
:1005100067950A94E2F76170F70181917F010E946B
:10052000B3012196C430D10579F7C601DF91CF918F
:100530001F910F91FF90EF90DF90CF900C945D0290
:10054000CF92DF92EF92FF920F931F93CF93DF939F
:10055000EC01F62E642F8C810E94B3018D818F3FB8
:1005600019F060E00E94B3010F2D10E08F8584FF29
:1005700025C06E0187E0C80ED11CF12CE12CB8011A
:100580000E2C02C0759567950A94E2F76170F6012A
:1005900081916F010E94B301FFEFEF1AFF0A88E01B
:1005A000E816F10461F7CE01DF91CF911F910F9111
:1005B000FF90EF90DF90CF900C945D02B80184E043
:1005C000759567958A95E1F7CE010E9473026F2DAC
:1005D000CE01DF91CF911F910F91FF90EF90DF90AF
:1005E000CF900C94730240E0682F8CE192E00C9461
:1005F000A002CF93DF93613029F090912B02986095
:1006000090932B0260932F021092300290E490930B
:10061000310280933202805C809333028091200209
:100620000E948700809121028F3F11F00E94870075
:10063000809122020E948700CCE1D2E09E012C51E1
:10064000324080912B0284FD0AC084E090E0219624
:10065000281739073CF48E810E948700EFCF88E08D
:1006600090E0F5CF8BE39DE00197F1F760E080919A
:1006700020020E94B30160E0809122020E94B30137
:10068000809121028F3F19F060E00E94B3018091B8
:100690002B0284FD39C063E08CE192E00E9473027A
:1006A000CBE4D6E4CE010197F1F763E08CE192E070
:1006B0000E9473022197F1F763E08CE192E00E94BF
:1006C000730283E592E00197F1F762E08CE192E03A
:1006D0000E94730280912B0280620E94F30284E0E8
:1006E00080932C028CE00E94F30281E00E94F302CE
:1006F0008BE39FE10197F1F782E080932D0286E082
:10070000DF91CF910C94F30280620E94F3028BE49C
:1007100096E40197F1F780912B0280620E94F30228
:1007200083E592E00197F1F780912B0280620E94AD
:10073000F302D0CF90912F02691710F06FEF690F7D
:10074000E62FF0E0E45EFD4F9489890F80680C94F9
:10075000F30241E00E94A00281E090E00895FB01D5
:1007600001900020E9F73197AF01461B570BDC01E0
:10077000ED91FC910280F381E02D09948F929F927C
:10078000AF92BF92EF92FF920F931F93CF93DF939D
:10079000CDB7DEB7A1970FB6F894DEBF0FBECDBFC1
:1007A0007C01FA01CB0119A2223008F42AE08E0163
:1007B0000F5D1F4F822E912CB12CA12CBF01A501E2
:1007C00094010E94F205F901CA016A300CF5605DDE
:1007D000D8016E938D01232B242B252B79F790E0E4
:1007E00080E0109721F0BD01C7010E94AF03A196E0
:1007F0000FB6F894DEBF0FBECDBFDF91CF911F9132
:100800000F91FF90EF90BF90AF909F908F900895C1
:10081000695CDECF1F920F920FB60F9211242F93B7
:100820003F934F935F936F937F938F939F93AF9378
:10083000BF93EF93FF938FE791E00E942401FF9114
:10084000EF91BF91AF919F918F917F916F915F9148
:100850004F913F912F910F900FBE0F901F901895C1
:100860001F920F920FB60F9211242F938F939F9385
:10087000EF93FF93E0918F01F09190018081E091DF
:100880009501F091960182FD1BC0908180919801A5
:100890008F5F8F7320919901821741F0E091980149
:1008A000F0E0E158FE4F958F80939801FF91EF9112
:1008B0009F918F912F910F900FBE0F901F901895C1
:1008C0008081F4CF1F920F920FB60F9211242F93B5
:1008D0003F938F939F93AF93BF93809177019091B4
:1008E0007801A0917901B0917A013091760123E0ED
:1008F000230F2D3758F50196A11DB11D20937601C8
:100900008093770190937801A0937901B0937A0155
:1009100080917B0190917C01A0917D01B0917E013D
:100920000196A11DB11D80937B0190937C01A09342
:100930007D01B0937E01BF91AF919F918F913F91C7
:100940002F910F900FBE0F901F90189526E8230F40
:100950000296A11DB11DD2CFEFE7F1E01382128202
:1009600088EE93E0A0E0B0E084839583A683B7830C
:1009700084E091E09183808385EC90E09587848783
:1009800084EC90E09787868780EC90E0918B808B59
:1009900081EC90E0938B828B82EC90E0958B848B42
:1009A00086EC90E0978B868B118E128E138E148EB0
:1009B000ECE1F2E01382128286E191E09183808380
:1009C0008DE084838FEF85838CE086838BE0878343
:1009D0008AE0808789E0818788E082871386148691
:1009E00015861686178661E080E10C94F9027894EA
:1009F00084B5826084BD84B5816084BD85B5826024
:100A000085BD85B5816085BD80916E0081608093D4
:100A10006E0010928100809181008260809381003D
:100A2000809181008160809381008091800081604D
:100A3000809380008091B10084608093B1008091A8
:100A4000B00081608093B00080917A0084608093D0
:100A50007A0080917A00826080937A0080917A0097
:100A6000816080937A0080917A00806880937A0018
:100A70001092C10064E084E10E94F902E0918F01CC
:100A8000F091900182E08083E0918B01F0918C01E4
:100A90001082E0918D01F0918E018FEC8083109295
:100AA0009701E0919301F091940186E08083E091B9
:100AB0009101F0919201808180618083E0919101A8
:100AC000F0919201808188608083E0919101F091A2
:100AD0009201808180688083E0919101F091920180
:100AE00080818F7D808360E080E00E949A036EE1C8
:100AF00071E08CE192E00E94AF0361E080E00E942F
:100B00009A036FE271E08CE192E00E94AF0362E031
:100B100080E00E949A0369E471E08CE192E00E9417
:100B2000AF03C0E0D0E08FE791E00E94E2006C01EB
:100B300063E080E00E949A036BE571E08CE192E053
:100B40000E94AF0363E08DE00E949A030D2C000C1D
:100B5000EE08FF082AE0B701A601F7FE0EC041E04B
:100B60006DE28CE192E00E94A00244275527BA0171
:100B70004C195D096E097F092AE08CE192E00E9420
:100B8000BE030E94240268E671E08FE791E00E94B4
:100B9000AF032AE0B701A601F7FE0DC06DE28FE7B3
:100BA00091E00E94460144275527BA014C195D097E
:100BB0006E097F092AE08FE791E00E94BE0362E799
:100BC00071E08FE791E00E94AF030E94240220971A
:100BD00009F4A9CF0E941001882309F4A4CF0E9430
:100BE0000000A1CFA1E21A2EAA1BBB1BFD010DC064
:100BF000AA1FBB1FEE1FFF1FA217B307E407F507CD
:100C000020F0A21BB30BE40BF50B661F771F881FA8
:100C1000991F1A9469F760957095809590959B013E
:100C2000AC01BD01CF010895EE0FFF1F0590F491B7
:080C3000E02D0994F894FFCFB8
:100C3800000000004601A600D30093010401E20071
:100C4800F60000000000A903A6005A0259027769BD
:100C580072656C6573732053657269616C200063FB
:100C68006F6D6D756E69636174696F6E2076696109
:100C780020322E342047487A006D6F64656D2061FC
:100C88007420504E4A2E2E2E2E2E0054656D702E36
:100C980020696E2030433A0054454D505F56414C10
:060CA8003B000D0A0000F4
:00000001FF
