:100000000C945D000C9485000C9485000C94850084
:100010000C9485000C9485000C9485000C9485004C
:100020000C9485000C9485000C9485000C9485003C
:100030000C9485000C9485000C9485000C9485002C
:100040000C943D030C9485000C940B030C94E50276
:100050000C9485000C9485000C9485000C9485000C
:100060000C9485000C94850000000008000201003B
:100070000003040700000000000000000000000072
:10008000250028002B0000000000240027002A0083
:10009000040404040404040402020202020203032E
:1000A0000303030301020408102040800102040836
:1000B0001020010204081020870311241FBECFEF77
:1000C000D8E0DEBFCDBF11E0A0E0B1E0EAEEFBE09A
:1000D00002C005900D92AA36B107D9F722E0AAE630
:1000E000B1E001C01D92A832B207E1F710E0CDE502
:1000F000D0E004C02197FE010E94ED05CC35D10768
:10010000C9F70E948D040C94F3050C94000090E054
:10011000FC01EC55FF4F249180579F4FFC018491C7
:10012000882399F090E0880F991FFC01EA57FF4F50
:10013000A591B491FC01E458FF4F859194918FB73C
:10014000F894EC91E22BEC938FBF0895AF92BF929D
:10015000CF92DF92EF92FF920F931F93CF93DF9393
:100160006C017B018B01040F151FEB015E01AE18C2
:10017000BF08C017D10759F06991D601ED91FC91E4
:100180000190F081E02DC6010995892B79F7C50111
:10019000DF91CF911F910F91FF90EF90DF90CF9063
:1001A000BF90AF900895FC01538D448D252F30E012
:1001B000842F90E0821B930B541710F0CF96089574
:1001C00001970895FC01918D828D981761F0A28DA1
:1001D000AE0FBF2FB11D5D968C91928D9F5F9F7367
:1001E000928F90E008958FEF9FEF0895FC01918D1D
:1001F000828D981731F0828DE80FF11D858D90E08A
:1002000008958FEF9FEF0895FC01918D228D892F26
:1002100090E0805C9F4F821B91098F73992708950E
:1002200083E791E00E94040121E0892B09F420E09A
:10023000822F089580E090E0892B29F00E94100120
:1002400081110C9400000895FC01A48DA80FB92F12
:10025000B11DA35ABF4F2C91848D90E001968F73EE
:100260009927848FA689B7892C93A089B1898C910D
:10027000837080648C93938D848D981306C002885C
:10028000F389E02D80818F7D80830895EF92FF9226
:100290000F931F93CF93DF93EC0181E0888F9B8DA9
:1002A0008C8D98131AC0E889F989808185FF15C063
:1002B0009FB7F894EE89FF896083E889F989808186
:1002C0008370806480839FBF81E090E0DF91CF9155
:1002D0001F910F91FF90EF900895F62E0B8D10E077
:1002E0000F5F1F4F0F731127E02E8C8D8E110CC0E6
:1002F0000FB607FCFACFE889F989808185FFF5CF31
:10030000CE010E942401F1CFEB8DEC0FFD2FF11DEA
:10031000E35AFF4FF0829FB7F8940B8FEA89FB896D
:1003200080818062CFCFCF93DF93EC01888D8823CB
:10033000B9F0AA89BB89E889F9898C9185FD03C048
:10034000808186FD0DC00FB607FCF7CF8C9185FF2D
:10035000F2CF808185FFEDCFCE010E942401E9CF4D
:10036000DF91CF91089590E0FC01E859FF4F24916F
:10037000FC01EC55FF4F3491FC01E057FF4FE49135
:10038000EE23C9F0222339F0233001F1A8F4213003
:1003900019F1223029F1F0E0EE0FFF1FE458FF4F72
:1003A000A591B4918FB7F894EC91611126C0309566
:1003B0003E233C938FBF08952730A9F02830C9F021
:1003C000243049F7809180008F7D03C080918000A8
:1003D0008F7780938000DFCF84B58F7784BDDBCFAC
:1003E00084B58F7DFBCF8091B0008F778093B00074
:1003F000D2CF8091B0008F7DF9CF3E2BDACF3FB7BF
:10040000F89480916F0190917001A0917101B09169
:10041000720126B5A89B05C02F3F19F00196A11DBA
:10042000B11D3FBFBA2FA92F982F8827BC01CD013E
:10043000620F711D811D911D42E0660F771F881F9D
:10044000991F4A95D1F70895089590E080E00895A6
:10045000FC0101900020E9F73197AF01481B590BCF
:10046000BC0180E192E00C94A600CF93DF93EC01F5
:1004700060E08E810E94B30161E08E810E94B30131
:1004800060E08E810E94B3018BE891E00197F1F763
:10049000DF91CF910895CF92DF92EF92FF920F9369
:1004A0001F93CF93DF936C017C0187E0E80EF11C72
:1004B000D0E0C0E0062F10E0B8010C2E02C0759508
:1004C00067950A94E2F76170F70181917F010E94BC
:1004D000B3012196C430D10579F7C601DF91CF91E0
:1004E0001F910F91FF90EF90DF90CF900C94350209
:1004F000CF92DF92EF92FF920F931F93CF93DF93F0
:10050000EC01F62E642F8C810E94B3018D818F3F08
:1005100019F060E00E94B3010F2D10E08F8584FF79
:1005200025C06E0187E0C80ED11CF12CE12CB8016A
:100530000E2C02C0759567950A94E2F76170F6017A
:1005400081916F010E94B301FFEFEF1AFF0A88E06B
:10055000E816F10461F7CE01DF91CF911F910F9161
:10056000FF90EF90DF90CF900C943502B80184E0BB
:10057000759567958A95E1F7CE010E944B026F2D24
:10058000CE01DF91CF911F910F91FF90EF90DF90FF
:10059000CF900C944B0240E0682F80E192E00C94E5
:1005A000780290912302891710F08FEF890FE82FBE
:1005B000F0E0E05FFD4F848980680C94CB0241E05D
:1005C0000E94780281E090E008951F920F920FB68A
:1005D0000F9211242F933F934F935F936F937F93C9
:1005E0008F939F93AF93BF93EF93FF9383E791E034
:1005F0000E942401FF91EF91BF91AF919F918F9144
:100600007F916F915F914F913F912F910F900FBE0E
:100610000F901F9018951F920F920FB60F921124F2
:100620002F938F939F93EF93FF93E0918301F0912A
:1006300084018081E0918901F0918A0182FD1BC0D3
:10064000908180918C018F5F8F7320918D01821733
:1006500041F0E0918C01F0E0ED58FE4F958F8093D2
:100660008C01FF91EF919F918F912F910F900FBE71
:100670000F901F9018958081F4CF1F920F920FB6A4
:100680000F9211242F933F938F939F93AF93BF9318
:1006900080916B0190916C01A0916D01B0916E0100
:1006A00030916A0123E0230F2D3758F50196A11DE3
:1006B000B11D20936A0180936B0190936C01A0930C
:1006C0006D01B0936E0180916F0190917001A091C6
:1006D0007101B09172010196A11DB11D80936F014E
:1006E00090937001A0937101B0937201BF91AF918B
:1006F0009F918F913F912F910F900FBE0F901F9060
:10070000189526E8230F0296A11DB11DD2CFCF93D5
:10071000DF93109276011092750188EE93E0A0E0CD
:10072000B0E08093770190937801A0937901B09322
:100730007A0184E091E0909374018093730185ECD9
:1007400090E09093800180937F0184EC90E09093FF
:1007500082018093810180EC90E0909384018093EA
:10076000830181EC90E0909386018093850182EC77
:1007700090E0909388018093870186EC90E09093BD
:100780008A018093890110928C0110928D01109240
:100790008E0110928F01109213021092120286E1C4
:1007A00091E090931102809310028DE080931402E7
:1007B0008FEF809315028CE0809316028BE080937C
:1007C00017028AE08093180289E08093190288E07A
:1007D00080931A0210921B0210921C0210921D02AA
:1007E00010921E0210921F0281E080932302109249
:1007F000240280E48093250280E18093260280E534
:10080000809327028DE00E948700809115028F3F20
:1008100011F00E948700809116020E948700C0E1BB
:10082000D2E09E012051324080911F0284FD0AC017
:1008300084E090E02196281739073CF48E810E94CD
:100840008700EFCF88E090E0F5CF8BE39DE0019744
:10085000F1F760E0809114020E94B30160E08091A2
:1008600016020E94B301809115028F3F19F060E0DB
:100870000E94B30180911F0284FD39C063E080E1D2
:1008800092E00E944B02CBE4D6E4CE010197F1F74F
:1008900063E080E192E00E944B022197F1F763E070
:1008A00080E192E00E944B0283E592E00197F1F72C
:1008B00062E080E192E00E944B0280911F02806220
:1008C0000E94CB0284E0809320028CE00E94CB0245
:1008D00081E00E94CB028BE39FE10197F1F782E078
:1008E0008093210286E0DF91CF910C94CB0280624D
:1008F0000E94CB028BE496E40197F1F780911F02EE
:1009000080620E94CB0283E592E00197F1F780912B
:100910001F0280620E94CB02D0CFCF93DF93CDB76E
:10092000DEB7A1970FB6F894DEBF0FBECDBF7894A7
:1009300084B5826084BD84B5816084BD85B58260E4
:1009400085BD85B5816085BD80916E008160809395
:100950006E001092810080918100826080938100FE
:10096000809181008160809381008091800081600E
:10097000809380008091B10084608093B100809169
:10098000B00081608093B00080917A008460809391
:100990007A0080917A00826080937A0080917A0058
:1009A000816080937A0080917A00806880937A00D9
:1009B0001092C100E0918301F091840182E0808374
:1009C000E0917F01F09180011082E0918101F0912E
:1009D00082018FEC808310928B01E0918701F0916E
:1009E000880186E08083E0918501F0918601808115
:1009F00080618083E0918501F0918601808188602B
:100A00008083E0918501F0918601808180688083F8
:100A1000E0918501F091860180818F7D808380E067
:100A20000E94D1028EE191E00E94280281E00E94A2
:100A3000D1028FE291E00E94280282E00E94D1025E
:100A400089E491E00E94280220E4322E3AE0832ECD
:100A5000912CA12CB12C30927C0080917A00806482
:100A600080937A0080917A0086FDFCCF8091780097
:100A700000917900102F082F17FF02C00F5F1F4F42
:100A80001595079583E00E94D1028BE591E00E94C5
:100A900028026801012E000CEE08FF0817FF65C050
:100AA00041E06DE280E192E00E9478022227332744
:100AB000A9012C193D094E095F0919A2CE018196A1
:100AC0007C01CA01B901A50194010E94CB05605DBA
:100AD000F70162937F01211531054105510589F721
:100AE000E114F10461F001900020E9F73197AF01C2
:100AF0004E195F09B70180E192E00E94A600602FC5
:100B000083E791E00E9446010E94FF016B017C0196
:100B100084E6482E512C612C712C0E94FF016C1927
:100B20007D098E099F09683E734081059105A8F3F0
:100B3000F1E04F1A51086108710828EEC20E23E057
:100B4000D21EE11CF11C411451046104710429F707
:100B500080E090E0892B09F47ECF0E941001882369
:100B600009F479CF0E94000076CFA701960119A25F
:100B7000CE0181967C01CA01B901A50194010E94B0
:100B8000CB05605DF70162937F01211531054105B9
:100B9000510589F7A5CFA1E21A2EAA1BBB1BFD01A7
:100BA0000DC0AA1FBB1FEE1FFF1FA217B307E4074C
:100BB000F50720F0A21BB30BE40BF50B661F771FA4
:100BC000881F991F1A9469F7609570958095909584
:100BD0009B01AC01BD01CF010895EE0FFF1F0590F1
:0A0BE000F491E02D0994F894FFCF82
:100BEA00000000004601A600D30093010401E200C0
:100BFA00F60000000000DF02A60025022402776941
:100C0A0072656C6573732053657269616C20006349
:100C1A006F6D6D756E69636174696F6E2076696157
:100C2A0020322E342047487A006D6F64656D20614A
:100C3A007420504E4A2E2E2E2E2E0054656D702E84
:0A0C4A0020696E2030433A200000BC
:00000001FF
